{
  "contractName": "PpFarm",
  "abi": [
    {
      "inputs": [
        {
          "internalType": "address",
          "name": "_ppTokenAddress",
          "type": "address"
        }
      ],
      "stateMutability": "nonpayable",
      "type": "constructor"
    },
    {
      "anonymous": false,
      "inputs": [
        {
          "indexed": true,
          "internalType": "address",
          "name": "previousOwner",
          "type": "address"
        },
        {
          "indexed": true,
          "internalType": "address",
          "name": "newOwner",
          "type": "address"
        }
      ],
      "name": "OwnershipTransferred",
      "type": "event"
    },
    {
      "inputs": [],
      "name": "name",
      "outputs": [
        {
          "internalType": "string",
          "name": "",
          "type": "string"
        }
      ],
      "stateMutability": "view",
      "type": "function"
    },
    {
      "inputs": [],
      "name": "owner",
      "outputs": [
        {
          "internalType": "address",
          "name": "",
          "type": "address"
        }
      ],
      "stateMutability": "view",
      "type": "function"
    },
    {
      "inputs": [],
      "name": "ppToken",
      "outputs": [
        {
          "internalType": "contract IERC20",
          "name": "",
          "type": "address"
        }
      ],
      "stateMutability": "view",
      "type": "function"
    },
    {
      "inputs": [],
      "name": "renounceOwnership",
      "outputs": [],
      "stateMutability": "nonpayable",
      "type": "function"
    },
    {
      "inputs": [
        {
          "internalType": "address",
          "name": "",
          "type": "address"
        },
        {
          "internalType": "address",
          "name": "",
          "type": "address"
        }
      ],
      "name": "stakingBalance",
      "outputs": [
        {
          "internalType": "uint256",
          "name": "",
          "type": "uint256"
        }
      ],
      "stateMutability": "view",
      "type": "function"
    },
    {
      "inputs": [
        {
          "internalType": "address",
          "name": "newOwner",
          "type": "address"
        }
      ],
      "name": "transferOwnership",
      "outputs": [],
      "stateMutability": "nonpayable",
      "type": "function"
    },
    {
      "inputs": [
        {
          "internalType": "address",
          "name": "token",
          "type": "address"
        }
      ],
      "name": "tokenIsAllowed",
      "outputs": [
        {
          "internalType": "bool",
          "name": "",
          "type": "bool"
        }
      ],
      "stateMutability": "nonpayable",
      "type": "function"
    },
    {
      "inputs": [
        {
          "internalType": "address",
          "name": "token",
          "type": "address"
        }
      ],
      "name": "addAllowedTokens",
      "outputs": [],
      "stateMutability": "nonpayable",
      "type": "function"
    },
    {
      "inputs": [],
      "name": "unstakeToken",
      "outputs": [],
      "stateMutability": "nonpayable",
      "type": "function"
    },
    {
      "inputs": [],
      "name": "issueTOkens",
      "outputs": [],
      "stateMutability": "nonpayable",
      "type": "function"
    },
    {
      "inputs": [],
      "name": "gettokenEthPrice",
      "outputs": [],
      "stateMutability": "nonpayable",
      "type": "function"
    }
  ],
  "bytecode": "0x60806040526040518060400160405280600e81526020017f54686520506f6f6c205061727479000000000000000000000000000000000000815250600190805190602001906200005192919062000185565b503480156200005f57600080fd5b5060405162000f1a38038062000f1a83398181016040528101906200008591906200024c565b6000620000976200017d60201b60201c565b9050806000806101000a81548173ffffffffffffffffffffffffffffffffffffffff021916908373ffffffffffffffffffffffffffffffffffffffff1602179055508073ffffffffffffffffffffffffffffffffffffffff16600073ffffffffffffffffffffffffffffffffffffffff167f8be0079c531659141344cd1fd0a4f28419497f9722a3daafe3b4186f6b6457e060405160405180910390a35080600260006101000a81548173ffffffffffffffffffffffffffffffffffffffff021916908373ffffffffffffffffffffffffffffffffffffffff160217905550506200032b565b600033905090565b8280546200019390620002ac565b90600052602060002090601f016020900481019282620001b7576000855562000203565b82601f10620001d257805160ff191683800117855562000203565b8280016001018555821562000203579182015b8281111562000202578251825591602001919060010190620001e5565b5b50905062000212919062000216565b5090565b5b808211156200023157600081600090555060010162000217565b5090565b600081519050620002468162000311565b92915050565b6000602082840312156200025f57600080fd5b60006200026f8482850162000235565b91505092915050565b600062000285826200028c565b9050919050565b600073ffffffffffffffffffffffffffffffffffffffff82169050919050565b60006002820490506001821680620002c557607f821691505b60208210811415620002dc57620002db620002e2565b5b50919050565b7f4e487b7100000000000000000000000000000000000000000000000000000000600052602260045260246000fd5b6200031c8162000278565b81146200032857600080fd5b50565b610bdf806200033b6000396000f3fe608060405234801561001057600080fd5b50600436106100a95760003560e01c806358e7317d1161007157806358e7317d1461012c5780635ce55f0814610136578063715018a6146101545780638da5cb5b1461015e578063dd5b84671461017c578063f2fde38b146101ac576100a9565b806306fdde03146100ae578063171e44ea146100cc57806320eb640c146100e857806329161a00146100f2578063388b3eb214610122575b600080fd5b6100b66101c8565b6040516100c391906108f8565b60405180910390f35b6100e660048036038101906100e19190610787565b610256565b005b6100f0610338565b005b61010c600480360381019061010791906107b0565b61033a565b604051610119919061095a565b60405180910390f35b61012a61035f565b005b610134610361565b005b61013e610363565b60405161014b91906108dd565b60405180910390f35b61015c610389565b005b6101666104c3565b60405161017391906108a7565b60405180910390f35b61019660048036038101906101919190610787565b6104ec565b6040516101a391906108c2565b60405180910390f35b6101c660048036038101906101c19190610787565b6105c1565b005b600180546101d590610a30565b80601f016020809104026020016040519081016040528092919081815260200182805461020190610a30565b801561024e5780601f106102235761010080835404028352916020019161024e565b820191906000526020600020905b81548152906001019060200180831161023157829003601f168201915b505050505081565b61025e61076a565b73ffffffffffffffffffffffffffffffffffffffff1661027c6104c3565b73ffffffffffffffffffffffffffffffffffffffff16146102d2576040517f08c379a00000000000000000000000000000000000000000000000000000000081526004016102c99061093a565b60405180910390fd5b6003819080600181540180825580915050600190039060005260206000200160009091909190916101000a81548173ffffffffffffffffffffffffffffffffffffffff021916908373ffffffffffffffffffffffffffffffffffffffff16021790555050565b565b6004602052816000526040600020602052806000526040600020600091509150505481565b565b565b600260009054906101000a900473ffffffffffffffffffffffffffffffffffffffff1681565b61039161076a565b73ffffffffffffffffffffffffffffffffffffffff166103af6104c3565b73ffffffffffffffffffffffffffffffffffffffff1614610405576040517f08c379a00000000000000000000000000000000000000000000000000000000081526004016103fc9061093a565b60405180910390fd5b600073ffffffffffffffffffffffffffffffffffffffff1660008054906101000a900473ffffffffffffffffffffffffffffffffffffffff1673ffffffffffffffffffffffffffffffffffffffff167f8be0079c531659141344cd1fd0a4f28419497f9722a3daafe3b4186f6b6457e060405160405180910390a360008060006101000a81548173ffffffffffffffffffffffffffffffffffffffff021916908373ffffffffffffffffffffffffffffffffffffffff160217905550565b60008060009054906101000a900473ffffffffffffffffffffffffffffffffffffffff16905090565b600080600090505b6003805490508110156105b6578273ffffffffffffffffffffffffffffffffffffffff1660038281548110610552577f4e487b7100000000000000000000000000000000000000000000000000000000600052603260045260246000fd5b9060005260206000200160009054906101000a900473ffffffffffffffffffffffffffffffffffffffff1673ffffffffffffffffffffffffffffffffffffffff1614156105a35760019150506105bc565b80806105ae90610a62565b9150506104f4565b50600090505b919050565b6105c961076a565b73ffffffffffffffffffffffffffffffffffffffff166105e76104c3565b73ffffffffffffffffffffffffffffffffffffffff161461063d576040517f08c379a00000000000000000000000000000000000000000000000000000000081526004016106349061093a565b60405180910390fd5b600073ffffffffffffffffffffffffffffffffffffffff168173ffffffffffffffffffffffffffffffffffffffff1614156106ad576040517f08c379a00000000000000000000000000000000000000000000000000000000081526004016106a49061091a565b60405180910390fd5b8073ffffffffffffffffffffffffffffffffffffffff1660008054906101000a900473ffffffffffffffffffffffffffffffffffffffff1673ffffffffffffffffffffffffffffffffffffffff167f8be0079c531659141344cd1fd0a4f28419497f9722a3daafe3b4186f6b6457e060405160405180910390a3806000806101000a81548173ffffffffffffffffffffffffffffffffffffffff021916908373ffffffffffffffffffffffffffffffffffffffff16021790555050565b600033905090565b60008135905061078181610b92565b92915050565b60006020828403121561079957600080fd5b60006107a784828501610772565b91505092915050565b600080604083850312156107c357600080fd5b60006107d185828601610772565b92505060206107e285828601610772565b9150509250929050565b6107f581610991565b82525050565b610804816109a3565b82525050565b610813816109d9565b82525050565b600061082482610975565b61082e8185610980565b935061083e8185602086016109fd565b61084781610b09565b840191505092915050565b600061085f602683610980565b915061086a82610b1a565b604082019050919050565b6000610882602083610980565b915061088d82610b69565b602082019050919050565b6108a1816109cf565b82525050565b60006020820190506108bc60008301846107ec565b92915050565b60006020820190506108d760008301846107fb565b92915050565b60006020820190506108f2600083018461080a565b92915050565b600060208201905081810360008301526109128184610819565b905092915050565b6000602082019050818103600083015261093381610852565b9050919050565b6000602082019050818103600083015261095381610875565b9050919050565b600060208201905061096f6000830184610898565b92915050565b600081519050919050565b600082825260208201905092915050565b600061099c826109af565b9050919050565b60008115159050919050565b600073ffffffffffffffffffffffffffffffffffffffff82169050919050565b6000819050919050565b60006109e4826109eb565b9050919050565b60006109f6826109af565b9050919050565b60005b83811015610a1b578082015181840152602081019050610a00565b83811115610a2a576000848401525b50505050565b60006002820490506001821680610a4857607f821691505b60208210811415610a5c57610a5b610ada565b5b50919050565b6000610a6d826109cf565b91507fffffffffffffffffffffffffffffffffffffffffffffffffffffffffffffffff821415610aa057610a9f610aab565b5b600182019050919050565b7f4e487b7100000000000000000000000000000000000000000000000000000000600052601160045260246000fd5b7f4e487b7100000000000000000000000000000000000000000000000000000000600052602260045260246000fd5b6000601f19601f8301169050919050565b7f4f776e61626c653a206e6577206f776e657220697320746865207a65726f206160008201527f6464726573730000000000000000000000000000000000000000000000000000602082015250565b7f4f776e61626c653a2063616c6c6572206973206e6f7420746865206f776e6572600082015250565b610b9b81610991565b8114610ba657600080fd5b5056fea2646970667358221220fd9317ae1e7675f826d040a07712ceab502d1b40a2ca173fc2023dc53f51dfe764736f6c63430008040033",
  "immutableReferences": {},
  "source": "// contracts/PoolParty.sol\n// SPDX-License-Identifier: MIT\npragma solidity ^0.8.4;\n\n// Import Auth from the access-control subdirectory\nimport \"./access-control/Auth.sol\";\n\n// Import Ownable from the OpenZeppelin Contracts library\n// Causes version conflicts that need to be resolved.\nimport \"@openzeppelin/contracts/access/Ownable.sol\";\n\n// Import chainlink aggregator\n// import \"https://raw.githubusercontent.com/smartcontractkit/chainlink/master/evm-contracts/src/v0.6/interfaces/AggregatorV3Interface.sol\";\n\n// need that zeppelin yo\nimport \"@openzeppelin/contracts/token/ERC20/IERC20.sol\";\n\ncontract PpFarm is Ownable {\n    string public name = \"The Pool Party\";\n    IERC20 public ppToken;\n    // change this to a mapping to save on gas\n    address[] allowedTokens;\n\n    // user address maps to a mapping of token address that map to amounts\n    \n    ////////////////////////////////////////////////////////////////\n    // pick up at 40:56 in https://www.youtube.com/watch?v=Zuyfy9wz5Ww\n    ////////////////////////////////////////////////////////////////\n    \n    \n    \n    mapping(address => mapping(address => uint256)) public stakingBalance;\n    \n    constructor(address _ppTokenAddress) {\n        ppToken = IERC20(_ppTokenAddress);\n    }\n\n    /*\n    customer will call this function to stake their token\n    */\n    // function stakeToken(uint256 _amount, address token) public {\n    //     require(_amount > 0, \"AMount cannot be 0\");\n    //     if (tokenIsAllowed(token)) {\n    //         updateUniqueTokensStake();\n    //         _IERC(token).transferFrom(msg.send, address(this), _amount);\n    //         stakingBalance\n    //     };\n    // }\n\n    /*\n    If the 'token' is in our array/list of tokens, all it to be staked.\n    */\n    function tokenIsAllowed(address token) public returns(bool){\n        for (uint256 allowedTokensIndex =0; allowedTokensIndex < allowedTokens.length; allowedTokensIndex++) {\n            if (allowedTokens[allowedTokensIndex] == token){\n                return true;\n            }\n        }\n        return false;\n    }\n\n    /*\n    Only Owner means this function is only allowed to be executed by the token owner.\n    */\n    function addAllowedTokens(address token) public onlyOwner {\n         allowedTokens.push(token);\n    }\n\n    function unstakeToken() public {\n\n    }\n\n    function issueTOkens() public {\n\n    }\n\n    function gettokenEthPrice() public {\n\n    }\n}\n",
  "sourcePath": "/Users/jrwhite/w/poolparty/src/contracts/Farm.sol",
  "compiler": {
    "name": "solc",
    "version": "0.8.4+commit.c7e474f2.Emscripten.clang"
  },
  "schemaVersion": "3.3.4",
  "updatedAt": "2021-05-24T19:42:03.702Z",
  "devdoc": {
    "kind": "dev",
    "methods": {
      "owner()": {
        "details": "Returns the address of the current owner."
      },
      "renounceOwnership()": {
        "details": "Leaves the contract without owner. It will not be possible to call `onlyOwner` functions anymore. Can only be called by the current owner. NOTE: Renouncing ownership will leave the contract without an owner, thereby removing any functionality that is only available to the owner."
      },
      "transferOwnership(address)": {
        "details": "Transfers ownership of the contract to a new account (`newOwner`). Can only be called by the current owner."
      }
    },
    "version": 1
  },
  "userdoc": {
    "kind": "user",
    "methods": {},
    "version": 1
  }
}